:100000000EC028C027C026C026C124C023C022C0DD
:1000100021C020C01FC01EC01DC0CEC1E8C1112418
:100020001FBECFE5D2E0DEBFCDBF10E0A0E6B0E05E
:10003000ECEFF4E002C005900D92A236B107D9F7BB
:1000400020E0A2E6B0E001C01D92AE3AB207E1F7AF
:10005000A2D052C2D5CF80E888B986B1866086B971
:1000600087B1836287B9379A0895379A0895379888
:100070000895369A3699FECF85B18093620008952F
:10008000809162000895F5DF91E08D3508F090E0F1
:10009000892F089591E0803608F090E0892F089527
:1000A000BC9A0895C49A2FEF81EE94E021508040CD
:1000B0009040E1F700C00000C4982FEF81EE94E07B
:1000C000215080409040E1F700C000000895EADF31
:1000D000E9DFE8CFC49A2FEF80E792E0215080401B
:1000E0009040E1F700C00000C4982FEF80E792E055
:1000F000215080409040E1F700C0000008951F9318
:10010000CF93DF931F92CDB7DEB710E004C0898391
:10011000E1DF1F5F89811813FACF0F90DF91CF9134
:100120001F910895C49A2FEF89E698E121508040ED
:100130009040E1F700C00000C4982FEF89E698E1F5
:10014000215080409040E1F700C000000895C49A1B
:100150000895C49808958091630008958093630082
:100160000895813031F038F0823031F0833039F445
:1001700005C061FD03C0EDCF60FFFDCFE8CF08955E
:10018000E8DFBC98089586E2D6C00DD18111F8C091
:100190008FEF0895E5C05FDFC8D082DFF4DF73DF43
:1001A000882331F082E0BBD0C4D080E1A8DF42C018
:1001B00085E080BF89B7846089BFABD0882359F1BF
:1001C000823049F180E0ABD082DF7894B0D0C1E0DA
:1001D00085B7806285BF889585B78F7D85BFD5DF60
:1001E0008F3FA1F0813441F0803F19F0803461F4F9
:1001F00007C081E094D008C0C093640081E003C0D0
:10020000C093640080E0AADF3BDFC4DF85D081506B
:100210008230F0F604C081E082D084DF789489D007
:1002200085B7806285BF889585B78F7D85BF74D07F
:100230008230B1F7A5DF76DF7CD019DFF89485B77F
:10024000877E806185BF85B7806285BF889585B7C9
:100250008F7D85BFF4CF1F920F920FB60F9211249E
:100260002F933F934F935F936F937F938F939F93BE
:10027000AF93BF93EF93FF93809165008F7799F5CC
:10028000F4DE01DF882381F082E068DF8091660080
:100290008F5F809366008436B0F01092640083E034
:1002A0005DDF82E03CD00FC010926600E9DEF2DE36
:1002B000882321F01092640081E004C080916400E2
:1002C000811101C04BDFD3DE46DF882349F0609106
:1002D000670047DF809167008F5F8093670003C0EE
:1002E00038DF10926700809165008F5F8093650012
:1002F000FF91EF91BF91AF919F918F917F916F91FE
:100300005F914F913F912F910F900FBE0F901F90D3
:10031000189580E090E0DAC08091600008958093A5
:100320006000682F80E090E0D9C0B99A0895C19A22
:100330000895C198089510926A0010926B0010926F
:1003400068001092690080936D0087B3856087BB59
:10035000C29AC09AB89888EA8DB980EF8EB908958C
:10036000909169009F5F9F71209168009217E1F35F
:10037000E92FF0E0E259FF4F8083909369000895E0
:1003800090916B0080916A009817D1F380916A0078
:100390008F5F8F7180936A00E0916A00F0E0E2570E
:1003A000FF4F8081089520916B0090916A0081E059
:1003B000291301C080E008951F920F920FB60F928B
:1003C00011248F9310926C00B898B29B02C0B09B1E
:1003D000FCCFB09902C088EF01C088EA8DB980EFE8
:1003E0008EB98F910F900FBE0F901F9018951F928E
:1003F0000F920FB60F9211248F939F93EF93FF9359
:1004000080916C008230C9F130F4882359F081303A
:1004100009F053C017C08430B1F188F0853009F07D
:100420004CC037C08FB1882331F08FB18695909141
:100430006D0089131FC0789B39C081E038C08FB12F
:10044000811118C09091690080916800981791F00F
:10045000809168008F5F8F7180936800E0916800E1
:10046000F0E0E259FF4F80818FB982E080936C0009
:10047000B89A0DC088EA8DB90AC083E080936C00F9
:10048000B8981FB818C085E080936C00B89880E7D2
:1004900013C080916B008F5F8F7180936B00E09130
:1004A0006B008FB1F0E0E257FF4F808384E08093D0
:1004B0006C001FB8B89A8EE78EB9FF91EF919F91AB
:1004C0008F910F900FBE0F901F901895E199FECF5E
:1004D0009FBB8EBBE09A99278DB30895262FE19993
:1004E000FECF1CBA9FBB8EBB2DBB0FB6F894E29A11
:0C04F000E19A0FBE01960895F894FFCF2A
:0204FC000300FB
:00000001FF
